:1010000000000420F91200002113000011940000D8
:101010002513000027130000291300000000000022
:101020000000000000000000000000002B13000082
:101030002D130000000000002F13000031130000EA
:101040004DEF0000BD6B01005DEF000033130000A9
:10105000331300003313000045E700003313000092
:101060003313000033130000331300003313000068
:101070003313000033130000331300003313000058
:1010800033130000ED45000033130000331300005C
:101090008D7201008D4600003313000033130000F1
:1010A0003313000033130000331300003313000028
:1010B00033130000331300000000000000000000A4
:1010C0003313000033130000331300003313000008
:1010D0003313000033130000331300008DD10000E0
:1010E000331300003313000065730200000000009A
:1010F0000000000033130000000000003313000064
:1011000000000000000000000000000000000000DF
:1011100000000000000000000000000000000000CF
:1011200000000000000000000000000000000000BF
:1011300000000000000000000000000000000000AF
:10114000000000000000000000000000000000009F
:10115000000000000000000000000000000000008F
:10116000000000000000000000000000000000007F
:10117000000000000000000000000000000000006F
:10118000000000000000000000000000000000005F
:10119000000000000000000000000000000000004F
:1011A000000000000000000000000000000000003F
:1011B000000000000000000000000000000000002F
:1011C000000000000000000000000000000000001F
:1011D000000000000000000000000000000000000F
:1011E00000000000000000000000000000000000FF
:1011F00000000000000000000000000000000000EF
:101200000348044B834202D0034B03B11847704795
:10121000E8010020E8010020000000000548064920
:10122000091A891001EBD171491002D0034B03B1A7
:1012300018477047E8010020E80100200000000086
:1012400010B5064C237843B9FFF7DAFF044B13B10E
:101250000448AFF300800123237010BDD0030020A9
:1012600000000000F49E030008B5044B1BB10449C4
:101270000448AFF30080BDE80840CFE7000000005D
:10128000D4030020F49E0300A3F5803A704700BF0A
:10129000154B002B08BF114B9D46FFF7F5FF0021B2
:1012A0008B460F461148124A121A26F0C5FD0C4B08
:1012B000002B00D098470B4B002B00D09847002004
:1012C000002104000D000B4826F01CFC26F04EFC0B
:1012D0002000290011F030FB26F01AFC0000080065
:1012E000000000000000000000000420D0030020E7
:1012F00068AD0120397B02000649074A074B9B1A5B
:1013000003DD043BC858D050FBDC11F087FBFFF72E
:10131000BFFF000010A2030008000020D00300203F
:10132000FEE7FEE7FEE7FEE7FEE7FEE7FEE7FEE795
:10133000FEE7FEE7F0B595B0002415460F460846D7
:101340001E4609F0FFFA384623460895082205A9EB
:101350001A9D09960D950A948DF82C400C9409F06D
:1013600035FB9DF814308DF81140DDE9061003F0CF
:101370000302012ACDE9020127D0022A04D038460F
:1013800009F0E4FA15B0F0BDBDF81650C3F3C2037E
:101390008DF81030AD090826082D2C4628BF0824EA
:1013A000334622460EA9384609F010FB2D1B214674
:1013B00008AB02AA0EA8264402F064FC002DEBD173
:1013C000384609F0C3FA15B0F0BDBDF81460059DAC
:1013D000C6F38316C3F3C204B2000EA9384608232D
:1013E0008DF81040C5F3952509F0F0FA08AB3246A8
:1013F00028460EA9009302AB02F0CEFB384609F056
:10140000A5FA15B0F0BD00BF014B01221A7070475C
:1014100030040020704700BF00B583B0044B009338
:10142000044A4023FFF786FF03B05DF804FB00BFCA
:1014300039140000F003002038B50F480F4D037831
:101440000F4CEB5C0025D2B2257053B104300EF086
:10145000E5FB58B90B4B1B7813B12378002BFCD05C
:1014600038BD0C300EF0A8F80028F3D0064A5321FE
:1014700002F05EFFEEE700BF080000203CAB012059
:1014800030040020EC03002048AD020030B51548C0
:10149000154A0378D35C89B0BBB104300EF014FB5D
:1014A000124D0FCD6C460FC495E80F00062584E859
:1014B0000F00002269460B48009509F0C9FF40B9AA
:1014C0000B4B00221A7009B030BD0C300DF0CCFF70
:1014D000E6E7084A432102F02BFF054B00221A7071
:1014E00009B030BD080000203CAB01201CAD02005B
:1014F000EC03002048AD020030B50F4D0FCD89B090
:101500006C460FC495E80F00062584E80F000B4ACF
:101510000B480095694609F09BFF20B9094B012251
:101520001A7009B030BD084A432102F001FF054B93
:1015300001221A7009B030BD1CAD02000914000070
:1015400008000020EC03002048AD020008B5FFF7BA
:10155000D3FF0421084801F0A7FE002803DB074B56
:1015600001225A7108BD0649482008F02DF8034BA6
:1015700001225A7108BD00BF18A103001C00002001
:101580009CAD0200064B8B6004284FF00003CB603B
:101590004B609CBF034B53F820300B60704700BF7B
:1015A00068B002008CB00200C368DB6800225A7188
:1015B000704700BFC368DB6801225A71704700BFE3
:1015C00030B40E4B0E4D0F4CED1A00222D09C1E91F
:1015D0000242C1E900220BD003EB0515DC68247937
:1015E000FF2C02D0904205D001321033AB42F5D12E
:1015F00030BC70479B680B6030BC704718A103007B
:1016000038A10300A0B002000129034604D081687C
:10161000D1F8941A890704D500221846114614F00F
:101620006FBB00B583B053680193054913680091FF
:10163000044A022112F082FE03B05DF804FB00BFF1
:101640002CAE020020AE02008368D3F8943A9B07C8
:1016500033D42DE9F0471B4C1B4E361B360982B0A4
:1016600028D00746DFF868A0DFF86890DFF86880C8
:1016700004EB06160CE06D79CDF804C0002D14BF04
:1016800055464D460095103412F058FEA64211D032
:10169000D4E902E595F804C0BCF1FF0F7346424659
:1016A0004FF008013846E6D1084A103412F046FEE1
:1016B000A642EDD102B0BDE8F0870022114614F039
:1016C0001FBB00BF18A1030038A1030058AE0200E1
:1016D00044AE02004CAE020078AE02002DE9F041AB
:1016E0001049114D52F8046C4A1B1209074610D0DC
:1016F00005EB021402E01035A5420AD0A968304675
:1017000027F0A2F80028F6D1EB6801225A71BDE853
:10171000F08133463846054A0221BDE8F04112F017
:101720000DBE00BF38A1030018A1030008AE0200DF
:101730002DE9F0410F49104D52F8046C4A1B120973
:1017400007460FD005EB021402E01035A54209D080
:10175000A968304627F078F80028F6D1EB68587170
:10176000BDE8F08133463846044A0221BDE8F04125
:1017700012F0E4BD38A1030018A1030008AE020076
:101780002DE9F04FD0F80C90384CD9F80C30384F88
:101790005B79E41B87B00646E408002B61D0354A2C
:1017A000354B0821304612F0C9FD344A0821304635
:1017B00012F0C4FDACB3A300DFF8D880DFF8D8B0D6
:1017C000DFF8D8A005930025002338F80320AA42AB
:1017D0002DD0059A04339A42F7D15146002338F8A8
:1017E0002320AA4232D001339C42F8D100229446F1
:1017F0005046002338F823E0AE4515D001339C4213
:10180000F8D1002394458CBF1D4A1E4A0292CDE9AF
:10181000001001351C4A0821304612F08FFDAC4201
:10182000D2D107B0BDE8F08F57F83330EAE7D9F8E6
:101830000C2016491279595802EB420207239340B3
:101840000B40D340DBB25BF82310C7E707EBC303C1
:1018500093F806C06246032A28BF03225BF82200E1
:10186000C7E70B4A022112F069FD98E718A10300AF
:10187000A09F0300D8AF0200CCAF0200F8AF020077
:1018800050B0020098AE020038B00200CC02002036
:10189000B8AF02001002002078B00200B0AF020022
:1018A00070B4114B114C124D1B1B0022DB08C1E917
:1018B00002524A600CD00F4D2E88B04204D110E085
:1018C00035F82260B04206D001329342F8D10023AD
:1018D0000B6070BC704704EBC20213680B6070BCF5
:1018E00070472246F9E700BF18A10300A09F03003C
:1018F00068B002001002002002B970472DE9F04FD5
:101900009A46CB68804993F804B085B014460646E1
:101910000722DAF8000027F02FFA00286ED1012CF8
:1019200000F0E680794F05460A2257F8041BDAF8E2
:10193000040027F021FA60B10135052DF4D1DAF861
:101940000430734A3046022105B0BDE8F04F12F072
:10195000F5BCEBB2022C019340F0C8806D4C6E4B8D
:10196000A3EB04095FEAD90945D00BEB4B0B072326
:1019700005FA0BF503FA0BFBCDF808B0674FDFF85B
:10198000AC81DFF8A0A1DDF804B004EBC90909E0DF
:101990002368083412F0D2FCA14507F1040708F1CE
:1019A000040828D0A3795B4552464FF00201304627
:1019B000EED33A68029982EA05030B405340C3F321
:1019C000C202C3F382118A4238BF0A4603F00701FC
:1019D0008A4238BF0A46C3F342218A4204F108040E
:1019E00038BF0A46A1453B60A8F8022007F104076A
:1019F00008F10408D6D105B0BDE8F08F08224849A7
:101A0000DAF8000027F0B8F9002879D1012C054652
:101A10000190A3D00127BC42EDD93F4BDFF8F490F1
:101A20000BEB4B0BA3EB090807F1804705FA0BF30F
:101A3000013F0393072303FA0BF34FEAD8080AEB9D
:101A40008707AAF1040A0AEB840502934346A846D5
:101A50001D4657F804BF0DB3002402E00134A5422F
:101A60001AD02022594659F8340009EBC40A27F04D
:101A700083F90028F2D19AF80630019A934214D2E1
:101A8000DAF80030274A0221304612F057FCB845F8
:101A9000DFD105B0BDE8F08FD7F800B0224A5B4631
:101AA0000221304612F04AFCF1E71C4B029853F831
:101AB0002420039B1D49534003405340C3F3C202FB
:101AC000C3F38210824238BF024603F0070082420D
:101AD00038BF0246C3F34220824238BF024601EBC0
:101AE00084010E484A8040F82430D0E7022792E76C
:101AF0000F4A3046022105B0BDE8F04F12F01EBC7F
:101B0000DAF800300B4A1DE718AF020078B0020087
:101B100090AF0200A09F030018A10300CC02002098
:101B200038AF020058AF02007CAF02001002002064
:101B300020AF020040AF020013460A46C168FFF71B
:101B4000DBBE00BF2DE9F047124D134C52F8047C68
:101B5000641B2409804615D01646894605EB0414FB
:101B600002E01035A5420DD0A968384626F06CFE7B
:101B70000028F6D133464A4629464046BDE8F0479C
:101B8000FFF7BABE3B464046044A0221BDE8F04793
:101B900012F0D4BB18A1030038A1030008AE020064
:101BA0002DE9F04F5049514E52F8045C8A1B12093E
:101BB00087B0074600F0888006EB021403E0103679
:101BC000B44200F08180B168284626F03DFE00282E
:101BD000F5D1F368464DDFF840915B79A5EB090537
:101BE000ED08002B79D0434A434B0821384612F0C8
:101BF000A5FB424A0821384612F0A0FBADB3AB006A
:101C0000DFF81881DFF818B1DFF818A10593002478
:101C1000002338F8032094423DD0059A04339A42B9
:101C2000F7D15146002338F82320A24241D0013396
:101C30009D42F8D1002294465046002338F823E014
:101C4000744515D001339D42F8D194454FF00003FF
:101C500012D92B4A0292CDE900100134294A0821F9
:101C6000384612F06BFBAC42D2D107B0BDE8F08F22
:101C7000944559F83330ECD8234A0292CDE900104C
:101C80000134204A0821384612F058FBA542BFD142
:101C900007B0BDE8F08FF2681C491279595802EB81
:101CA0004202072393400B40D340DBB25BF8231082
:101CB000B8E709EBC30393F806C06246032A28BFBE
:101CC00003225BF82200B8E7114A2B46384602216E
:101CD00007B0BDE8F04F12F031BB0E4A0221384682
:101CE00012F02CFB7FE700BF38A1030018A103000E
:101CF00018A10300D8AF0200CCAF0200F8AF020079
:101D000050B0020038B0020098AE0200CC020020B1
:101D100008AE0200B8AF0200A09F0300100200202E
:101D200078B00200B0AF02002DE9F84F44F218017C
:101D3000654B664800225A5044F2140444F22001D4
:101D40000026002740F6FF75C3E900679D601A5121
:101D50005A5408F08BFD834610B15846BDE8F88F01
:101D6000DFF878815A4E5B48A6EB080609F048F97F
:101D7000F608F2D0DFF868A15D4600273C4608EB84
:101D8000C509A5424FF0140208D058F83410D9F80C
:101D9000000026F0F1FF0028C8BF01370134A64239
:101DA000EFD12AF825700135AE42E6D14A4D731EB7
:101DB000092BC5F3800440F284801CB10023AAF8EB
:101DC00002302B60A200371B931C4FEA970E53443E
:101DD0000EF1010E103203EB0E1E2A4410334FF0A9
:101DE000000C0020002123F810CC23F80CCC23F8A1
:101DF00008CC23F804CC1033734542E9040142E9CE
:101E0000020102F11002EED127F003039F421C44AD
:101E1000A3D00AEB8402611C00238E42538045F854
:101E200024309AD90AEB8100A21C964245F8213051
:101E3000438092D90AEB820145F82230E21C964297
:101E40004B808AD90AEB820145F82230221D964246
:101E50004B8082D90AEB820145F82230621D9642FE
:101E60004B807FF67AAF0AEB820145F82230A21D43
:101E700096424B807FF671AF0AEB820145F8223023
:101E8000E21D96424B807FF668AF0AEB820145F86F
:101E9000223004F1080296424B807FF65EAF0AEBD7
:101EA00082010934A64245F822304B807FF655AFB7
:101EB0000AEB840A45F82430AAF802305846BDE8F7
:101EC000F88F0024A5E700BF08050020D0A103007B
:101ED00018A103005CB00200CC020020A09F030008
:101EE00010020020A9B1124B12495B1ADB081AD06C
:101EF00030B4114C2288824217D0002203E034F81B
:101F0000225085420AD001329342F8D1002030BCE1
:101F10007047084A02EBC0021068704701EBC2022A
:101F2000106830BC7047184670470A46F8E700BF93
:101F300018A10300A09F030010020020094B0139E3
:101F400003EBC00003290BD8DFE801F00208060408
:101F5000022070474079704700797047042070472D
:101F600000207047A09F030030B51D4A44F22003B3
:101F700083B0D35C04460BBB10B326F061FE012393
:101F8000C5186A4601A91748009509F047F80546A3
:101F9000B0B92146DDE9002025F04CFEDDE9002343
:101FA0001344104803F8015C009909F08BF880B9DC
:101FB00000990C4809F0A0F828B9019803B030BD89
:101FC000002003B030BD084940F20E2007F0FCFAB3
:101FD000F3E7054940F20A2007F0F6FAE8E700BF08
:101FE000080500205CB002008CB202002DE9F04F21
:101FF000764CD4E900239A4289B062D044F21803A7
:102000000022E250BFF34F8FD4E9015605EA0602E1
:10201000D31C04EB830114F8233058071AD5D4F8E5
:1020200000C06B4F0B7803F00303012B3ED0022B53
:1020300003D14B88023505EB931506EA0502386893
:10204000D31C04EB830128B9AC4535D914F82330EF
:102050005B07E7D404EB82026B1CD2680292334028
:1020600004EB830302F00302DB680393022A05F109
:10207000020A2AD0012A00F0928144F21003E558A6
:102080003DB12B6828469B689847EB681D68002D7A
:10209000F7D1504B5B88012B00F2A480D4E90030CB
:1020A000C01A18BF012009B0BDE8F08F0B880235B7
:1020B000C3F383131D44C0E7C4F804C009B0BDE8EE
:1020C000F08F002009B0BDE8F08FBDF80A3042481B
:1020D0009DF808704FEA93194D46502D28BF5025A2
:1020E00065F38F1305F10801ADF80A3008F0C0FB65
:1020F000C7F3C20780460028BFD026EA0A0B08F0C3
:1021000021FC0BF1010B082200230DEB02014046DC
:102110004FEA8B0B08F046FC5D4540F28181BBF134
:10212000000F00F0928106EA0A010331A5EB0B05CE
:1021300004EB810108235A464046EDB208F032FC18
:102140002A460BF108032549404608F02BFC09F10B
:1021500003090AEB990944F21803E358002B40F0F5
:102160006A8144F21003E558FDB1DFF874A0072638
:10217000EB685A79B2B11A79BDF80C0002EB420152
:102180005AF8200006FA01F2052F02EA000208BF01
:102190000327CA40974205D82B6841461B6828464A
:1021A0009847EB681D68002DE2D1404608F0CEFB51
:1021B000002007F0DDF844F21803E3580BB9C4F827
:1021C0000490002007F0EEF868E700BF0805002043
:1021D0002045002084020020D0A103001405002027
:1021E000CC020020DFF894929D4BA2680192A3EBF1
:1021F0000903DB080020009307F0BAF8D4E90132A4
:10220000D4F8008013440133A3EB0803012B00F240
:102210002381944D2F1FA5F108060121284607F0C0
:10222000A5FA384607F0C6FA304607F0C3FAD4E9F3
:10223000013E03EA0E01C81C04EB800214F820C022
:102240001CF0040C00F09580084603F1020B614677
:102250008446107800F003000128DA4600F08480FC
:10226000022870D00CF1030204EB82020029F0D1A5
:10227000614604EB81010133CA68059203EA0E034B
:1022800004EB830302F00302012AD9687FD0022AFB
:1022900074D075494FF4BF7007F096F94FF0000BFA
:1022A000304607F093FA5946002865D02846C4F80E
:1022B00004A007F05BFAD4E901322168134401332A
:1022C0005B1A012BA9D90A400332052302310020F1
:1022D00044F82230216007F065F80021614807F0DA
:1022E00017FA80F31005614BBDF80060A3EB0909F4
:1022F000B6EBD90F80F0A380019A08F101031340D7
:1023000004EB830302EA080808F1030846EA0545DE
:10231000DD6054F82820564B63F39F2222F47F732C
:1023200023F0030343F0110344F8282044F2200271
:1023300024F82830A35C002B3FF4B0AEFFF756FE24
:102340000028FBD1AAE653880BEB93130EEA030C8B
:102350000CF1030203F1020B14F82210DA4604EB2D
:10236000820201F0040181E71388C3F383135B4405
:10237000ECE703F1020A7CE728469AE7BDF816303D
:102380009B0903334FEA114B0AEB930A88E7BDF828
:102390001430C3F383134FEA114B9A4480E7BDF81E
:1023A00008703448C7F38313062B28BF0623991CF3
:1023B00063F389178900ADF8087008F059FAC7F37C
:1023C000C207804600283FF458AE08F0BBFA082246
:1023D00000230DEB0201404608F0E4FABDF8083096
:1023E00013F4707F3AD06FF0010BABEB050B0825AF
:1023F00006EA0A0103312B46042204EB8101404620
:1024000008F0D0FABDF808300AF101090BEB090217
:10241000C3F383139342CA4605F10405E8D89AE64C
:1024200006EA0A01033104EB81012A4608234046EB
:1024300008F0B8FA8BE6404608F088FA2EE60A491A
:1024400040F2A31007F0C0F856E72A4608230A49CD
:10245000404608F0A7FA7AE6414634E7D1467AE6E4
:1024600088A00300244500208CB2020018A10300BC
:1024700078B20200D0A1030014050020A09F030041
:102480002DE9F04F13468BB0834C049003339D0825
:102490000020A368019202930591039506F068FF5E
:1024A000D4E90132D4F8009013440133A3EB0903BB
:1024B000AE1C9E4240F2EE80784DA5F10408A5F1D5
:1024C00008070121284607F051F9404607F072F944
:1024D000384607F06FF9D4E9013E03EA0E00C21C4A
:1024E00004EB820114F8222012F0040200F0AF8005
:1024F00003F1020C91F800B00BF0030BBBF1010FDC
:10250000E24600F09F80BBF1020F00F1030B00F0E8
:10251000898004EB8B01002AECD104EB80000133AD
:10252000C268079203EA0E0304EB830302F003027E
:10253000012AD96800F09080022A00F0958058495D
:102540004FF4BF7007F040F84FF0000B384607F02B
:102550003DF9594600287DD02846C4F804A007F06C
:1025600005F9D4E901322168134401335B1A9E4214
:10257000A7D80A400E4403990332062361F39F5300
:10258000002044F82230266006F00CFFA568029B6C
:10259000019A09F10200184001352D1AAD000330EF
:1025A000AA4204EB800071D9059E2A46314625F0E7
:1025B00041FB33462B441946019B3A485A1B25F0F0
:1025C00039FB0021354807F0A3F880F31000029989
:1025D000049D09F101030B4004EB830301EA09099F
:1025E0002A0C09F1030942EA0042DA6014F82930A2
:1025F000019865F3C50304F8293004EB890344F21C
:1026000020015A8860F38F125A8034F8293003F081
:10261000380343F0020324F82930635C6BBB0BB032
:10262000BDE8F08F4B880CEB93130EEA0300C11C3E
:1026300003F1020C14F82120E24604EB810102F0C0
:10264000040268E70B88C3F383136344EDE703F1E7
:10265000020A62E7284682E7BDF81C30C3F3831301
:102660004FEA114B9A4471E7BDF81E309B090333C2
:102670004FEA114B0AEB930A68E7FFF7B7FC002813
:10268000CDD0FFF7B3FC0028F7D1C8E7059925F0B6
:10269000D1FA96E749466CE708050020244500205A
:1026A0008CB20200140500202DE9F04F754C89B062
:1026B00080460020CDE901120393A56806F058FE7C
:1026C000D4E9012326681A440132921B032A00F23E
:1026D000D7806D4FA7F108090121384607F046F869
:1026E0006A4807F067F8484607F064F8D4E9013E05
:1026F00003EA0E00C21C04EB820114F8222012F03F
:10270000040200F0B48003F1020C91F800B00BF069
:10271000030BBBF1010FE24600F0A480BBF1020FF6
:1027200000F1030B00F08E8004EB8B01002AECD14A
:1027300004EB80000133C268059203EA0E0304EB48
:10274000830302F00302012AD96873D0022A68D0F9
:102750004F494FF4BF7006F037FF4FF0000B48466B
:1027600007F034F85946002859D03846C4F804A078
:1027700006F0FCFFD4E90113226819440131891ADB
:102780000329A9D91340033304328521002044F8DA
:102790002310226006F006FEB21CF31C2A4004EB54
:1027A00082022B4004EB8303029FD7600021039A2F
:1027B0003548DA6006F0ACFF80F31009354B364A35
:1027C0004FEA18479B1AB7EBD30F53D2731C2B4019
:1027D00004EB83033540033547EA0947DF6014F80B
:1027E000253068F3C50304F82530019B54F82520F3
:1027F00063F39F2222F4717323F0030343F08103F8
:1028000044F8252044F2200224F82530A35C1BB1B3
:10281000FFF7ECFB0028FBD109B0BDE8F08F38468C
:10282000A6E7BDF816309B0903334FEA114B0AEBBC
:10283000930A94E7BDF81430C3F383134FEA114BA6
:102840009A448CE74B880CEB93130EEA0300C11CEF
:1028500003F1020C14F82120E24604EB810102F09E
:10286000040263E70B88C3F383136344EDE703F1CA
:10287000020A5DE7064940F2A31006F0A5FEA5E7AF
:1028800032467FE70805002024450020204500202F
:102890008CB2020018A10300A09F03002DE9F04FA5
:1028A000784C89B080460020CDE901120393A568D9
:1028B00006F05EFDD4E9012326681A440132921B1A
:1028C000042A00F2DD80704FA7F108090121384683
:1028D00006F04CFF6D4806F06DFF484606F06AFFB3
:1028E000D4E9013E03EA0E00C21C04EB820114F895
:1028F000222012F0040200F0BA8003F1020C91F8D9
:1029000000B00BF0030BBBF1010FE24600F0AA8010
:10291000BBF1020F00F1030B00F0948004EB8B017C
:10292000002AECD104EB80000133C268059203EA6F
:102930000E0304EB830302F00302012AD96879D065
:10294000022A6ED052494FF4BF7006F03DFE4FF0A0
:10295000000B484606F03AFF594600285FD038463B
:10296000C4F804A006F002FFD4E901132268194458
:102970000131891A0429A9D9134003330532C5212D
:10298000002044F82310226006F00CFDB01CF21C5D
:10299000284004EB8000331D2A40029FC76004EBEF
:1029A00082022B4004EB8303039FD7600021129A1D
:1029B0003548DA6006F0ACFE80F31009354B364A34
:1029C0004FEA18479B1AB7EBD30F53D2731C2B4017
:1029D00004EB83033540033547EA0947DF6014F809
:1029E000253068F3C50304F82530019B54F82520F1
:1029F00063F39F2222F4717323F0030343F0C103B6
:102A000044F8252044F2200224F82530A35C1BB1B1
:102A1000FFF7ECFA0028FBD109B0BDE8F08F38468B
:102A2000A0E7BDF816309B0903334FEA114B0AEBC0
:102A3000930A8EE7BDF81430C3F383134FEA114BAA
:102A40009A4486E74B880CEB93130EEA0300C11CF3
:102A500003F1020C14F82120E24604EB810102F09C
:102A600004025DE70B88C3F383136344EDE703F1CE
:102A7000020A57E7064940F2A31006F0A5FDA5E7B4
:102A8000324679E708050020244500202045002033
:102A90008CB2020018A10300A09F03002DE9F04FA3
:102AA0007E4C89B080460020CDE901120393A568D1
:102AB00006F05EFCD4E9012326681A440132921B19
:102AC000052A00F2E880764FA7F10809012138466F
:102AD00006F04CFE734806F06DFE484606F06AFEAE
:102AE000D4E9013E03EA0E00C21C04EB820114F893
:102AF000222012F0040200F0C58003F1020C91F8CC
:102B000000B00BF0030BBBF1010FE24600F0B58003
:102B1000BBF1020F00F1030B00F09F8004EB8B016F
:102B2000002AECD104EB80000133C268059203EA6D
:102B30000E0304EB830302F00302012AD96800F0BC
:102B40008480022A78D058494FF4BF7006F03CFDCB
:102B50004FF0000B484606F039FE5946002869D070
:102B60003846C4F804A006F001FED4E90113226837
:102B700019440131891A0529A8D9134003330632B3
:102B800040F20511002044F82310F71C226006F0E3
:102B900009FCB11C321D731D29402F402B4004EB52
:102BA000810104EB87072A4004EB820204EB830CCB
:102BB0000298039BC860FB60129BD3600021139BAB
:102BC0003748CCF80C3006F0A3FD80F31009374BE2
:102BD000374A4FEA18479B1AB7EBD30F55D2731CED
:102BE0002B4004EB83033540033547EA0947DF6098
:102BF00014F8253068F3C50304F82530019B54F818
:102C0000252063F39F2222F4717323F0030343F41E
:102C1000807343F0010344F8252044F2200224F895
:102C20002530A35C1BB1FFF7E1F90028FBD109B007
:102C3000BDE8F08F384696E7BDF816309B090333A0
:102C40004FEA114B0AEB930A84E7BDF81430C3F343
:102C500083134FEA114B9A447CE74B880CEB931398
:102C60000EEA0300C11C03F1020C14F82120E24615
:102C700004EB810102F0040252E70B88C3F38313D3
:102C80006344EDE703F1020A4CE7074940F2A31061
:102C900006F09AFCA3E732466FE700BF0805002064
:102CA00024450020204500208CB2020018A103001A
:102CB000A09F03002DE9F04F8DB0854C169E09961C
:102CC000CDE90223CDE90723179B0A938046189B81
:102CD0000B930020A568019106F04AFBD4E901237B
:102CE00026681A440132921B062A00F2EE80794FC0
:102CF000A7F108090121384606F038FD764806F0AC
:102D000059FD484606F056FDD4E9013E03EA0E009F
:102D1000C21C04EB820114F8222012F0040200F01D
:102D2000CB8003F1020C91F800B00BF0030BBBF168
:102D3000010FE24600F0BB80BBF1020F00F1030B74
:102D400000F0A58004EB8B01002AECD104EB80009D
:102D50000133C268049203EA0E0304EB830302F01A
:102D60000302012AD96800F08A80022A7ED05B49DA
:102D70004FF4BF7006F028FC4FF0000B484606F0F9
:102D800025FD594600286FD03846C4F804A006F047
:102D9000EDFCD4E90113226819440131891A06298E
:102DA000A8D913400333073240F24511002044F8FC
:102DB0002310226006F0F6FAB11CF01C731D2940A6
:102DC0002B4004EB8101321D284004EB830C04EB03
:102DD0008000029BCB602A4004EB8202039BC3600D
:102DE000B71D169BD3602F40179BCCF80C3004EB1B
:102DF0008707189B3748FB60002106F089FC80F3A9
:102E00001009374B374A4FEA18479B1AB7EBD30FD5
:102E100055D2731C2B4004EB83033540033547EA3E
:102E20000947DF6014F8253068F3C50304F825303E
:102E3000019B54F8252063F39F2222F4717323F041
:102E4000030343F4A07343F0010344F8252044F244
:102E5000200224F82530A35C1BB1FFF7C7F8002837
:102E6000FBD10DB0BDE8F08F384690E7BDF81230C9
:102E70009B0903334FEA114B0AEB930A7EE7BDF837
:102E80001030C3F383134FEA114B9A4476E74B8813
:102E90000CEB93130EEA0300C11C03F1020C14F8AF
:102EA0002120E24604EB810102F004024CE70B888A
:102EB000C3F383136344EDE703F1020A46E70749CE
:102EC00040F2A31006F080FBA3E7324669E700BF9B
:102ED0000805002024450020204500208CB2020077
:102EE00018A10300A09F03002DE9F04F724C87B09A
:102EF00080460020CDE90012A56806F039FAD4E931
:102F0000012326681A440132921B022A00F2D18062
:102F10006A4FA7F108090121384606F027FC6848E6
:102F200006F048FC484606F045FCD4E9013E03EAB9
:102F30000E00C21C04EB820114F8222012F00402DD
:102F400000F0AE8003F1020C91F800B00BF0030B1F
:102F5000BBF1010FE24600F09E80BBF1020F00F1D1
:102F6000030B00F0888004EB8B01002AECD104EB0A
:102F700080000133C268039203EA0E0304EB83036B
:102F800002F00302012AD9686DD0022A62D04D49AD
:102F90004FF4BF7006F018FB4FF0000B484606F0E8
:102FA00015FC5946002853D03846C4F804A006F052
:102FB000DDFBD4E90113226819440131891A022981
:102FC000A9D91340033303324521002044F82310CC
:102FD000226006F0E7F9B31C2B4004EB8303019A4F
:102FE0003648DA60002106F093FB80F31009364B77
:102FF000364A4FEA18479B1AB7EBD30F53D2731CCC
:103000002B4004EB83033540033547EA0947DF6073
:1030100014F8253068F3C50304F82530009B54F8F4
:10302000252063F39F2222F4717323F0030343F0FE
:10303000410344F8252044F2200224F82530A35C03
:103040001BB1FEF7D3FF0028FBD107B0BDE8F08F1E
:103050003846ACE7BDF80E309B0903334FEA114BFD
:103060000AEB930A9AE7BDF80C30C3F383134FEAD7
:10307000114B9A4492E74B880CEB93130EEA030032
:10308000C11C03F1020C14F82120E24604EB81017B
:1030900002F0040269E70B88C3F383136344EDE78E
:1030A00003F1020A63E7074940F2A31006F08CFA25
:1030B000A5E7324685E700BF08050020244500202B
:1030C000204500208CB2020018A10300A09F03003D
:1030D0002DE9F04F6E4C87B0804600200191A56825
:1030E00006F046F9D4E9012326681A440132921BFE
:1030F000012A00F2CB80674FA7F108090121384669
:1031000006F034FB644806F055FB484606F052FBD7
:10311000D4E9013E03EA0E00C21C04EB820114F85C
:10312000222012F0040200F0A88003F1020C91F8B2
:1031300000B00BF0030BBBF1010FE24600F09880EA
:10314000BBF1020F00F1030B00F0828004EB8B0156
:10315000002AECD104EB80000133C268039203EA39
:103160000E0304EB830302F00302012AD96867D03F
:10317000022A5CD049494FF4BF7006F025FA4FF09F
:10318000000B484606F022FB594600284DD0384631
:10319000C4F804A006F0EAFAD4E90113226819443D
:1031A0000131891A0129A9D91340033302320521BB
:1031B000002044F82310226006F0F4F8002135487E
:1031C00006F0A6FA80F31009354B364A4FEA184745
:1031D0009B1AB7EBD30F53D2731C2B4004EB830322
:1031E0003540033547EA0947DF6014F8253068F3B6
:1031F000C50304F82530019B54F8252063F39F2272
:1032000022F4717323F0030343F0010344F82520F3
:1032100044F2200224F82530A35C1BB1FEF7E6FE41
:103220000028FBD107B0BDE8F08F3846B2E7BDF803
:103230000E309B0903334FEA114B0AEB930AA0E7C8
:10324000BDF80C30C3F383134FEA114B9A4498E74F
:103250004B880CEB93130EEA0300C11C03F1020C24
:1032600014F82120E24604EB810102F004026FE72A
:103270000B88C3F383136344EDE703F1020A69E7A4
:10328000064940F2A31006F09FF9A5E732468BE706
:103290000805002024450020204500208CB20200B3
:1032A00018A10300A09F03002DE9F04344F210038E
:1032B000344F0646F85878B1C56895F804C0002424
:1032C000A445204650D02B4603E0DB681A79A24281
:1032D0004AD01B68002BF8D1F36844F21002187131
:1032E000BB58002B4AD0DC68F36824681C60BB58CC
:1032F000DB681E60244F254BFF1AFF0832D0244C98
:10330000DFF8908003F1070C00224FF0070EF568FC
:103310001CF8323095F8049025688B4209EB490976
:1033200028BF0B4603FA09F36B400EFA09F903EACA
:1033300009036B40C3F3C205C3F382194D4538BF7F
:103340004D4603F007094D4538BF4D46C3F34229AA
:103350004D4538BF4D4628F822500132BA4244F854
:10336000043BD4D1BDE8F083092C04F1010301D062
:103370001C46A5E74FF0FF30BDE8F083BE50F26871
:103380001360B7E70805002018A10300A09F030001
:10339000CC0200201202002038B544F21001094B83
:1033A00044F220025C5801259D544CB1E3685D71E4
:1033B000236820465B689847E3681C68002CF5D1B9
:1033C00038BD00BF080500202DE9F04F744B75494A
:1033D000754C8FB0C91A8908002609930A9105AA6D
:1033E00003AB43F2274141F26E00CDE90566079633
:1033F000CDE9036608940EF0D1FB0746002800F0E3
:10340000E5800A2804D0032528460FB0BDE8F08FD8
:1034100005A808A90DF0A6FF644B5B88022B0546A2
:10342000F2D9634A634B644C9B1ADB080193304624
:10343000A368009305F09CFFD4E90132D4F8009012
:1034400013440133A3EB0903022B00F2E7815B4F26
:10345000A7F10408A7F108060121384606F086F90D
:10346000404606F0A7F9304606F0A4F9D4E9013E3B
:1034700003EA0E00C11C04EB810214F8211011F0C4
:10348000040100F0A78103F1020C92F800B00BF0E8
:10349000030BBBF1010FE24600F07181BBF1020F9B
:1034A00000F07E81C21C04EB82020029EDD104EB06
:1034B00080000133C2680B9203EA0E0304EB83031E
:1034C00002F00302012AD96800F08981022A00F083
:1034D0008E813B494FF4BF7006F076F84FF0000B39
:1034E000304606F073F95946002800F076813846D8
:1034F000C4F804A006F03AF9D4E901322168134473
:1035000001335B1A022BA7D90A400332452344F842
:10351000223003310020216005F044FF009A274843
:1035200009F10203134004EB83030021DD6006F080
:10353000EFF880F31006234B1D4ABDF804709B1A68
:10354000B7EBD30F80F05C81009A09F101031340BF
:1035500004EB830302EA090909F1030947EA064675
:10356000DE6054F82920184B63F39F2222F47F7306
:1035700023F0030343F0590344F8292044F22002C6
:1035800024F82930A35C002B3FF43EAFFEF72EFD5C
:1035900000283FF439AFFEF729FD0028F6D133E7C4
:1035A000CC020020880300206E1027348402002003
:1035B000A09F030088A003000805002024450020E8
:1035C0008CB2020018A1030044B2020005A808A9A9
:1035D0000EF072F8924B5B88022B05467FF614AF13
:1035E000904A914B914C9B1ADB0801933846A36893
:1035F000009305F0BDFED4E90132D4F800901344E5
:103600000133A3EB0903022B00F20681884FA7F1D7
:103610000408A7F108060121384606F0A7F840463D
:1036200006F0C8F8304606F0C5F8D4E9013E03EAD2
:103630000E00C21C04EB820114F8222012F00402D6
:1036400000F0B28003F1020C91F800B00BF0030B14
:10365000BBF1010FE24600F08D80BBF1020F00F1DB
:10366000030B77D004EB8B01002AEDD104EB800033
:103670000133C2680B9203EA0E0304EB830302F0EA
:103680000302012AD96800F09D80022A00F091808F
:1036900068494FF4BF7005F097FF4FF0000B3046BC
:1036A00006F094F85946002800F081803846C4F8A6
:1036B00004A006F05BF8D4E9013221681344013319
:1036C0005B1A022BA7D90A400332452344F8223063
:1036D00003310020216005F065FE009A544809F18D
:1036E0000203134004EB83030021DD6006F010F8B1
:1036F00080F31006504B4B4ABDF804709B1AB7EB91
:10370000D30F80F08380009A09F10103134004EB8A
:10371000830302EA090909F1030947EA0646DE6064
:1037200054F82920454B63F39F2222F47F7323F042
:10373000030343F0590344F8292044F2200224F8FB
:103740002930A35C002B3FF45FAEFEF74FFC00284E
:10375000FBD159E64B880CEB93130EEA0300C11C16
:1037600003F1020C14F82120E24604EB810102F07F
:10377000040279E70B88C3F383136344EDE71388EE
:10378000C3F3831363440EEA0300C21C03F1020C6B
:1037900014F82210E24604EB820201F0040184E6F0
:1037A00053880CEB9313EEE703F1020A5EE7384609
:1037B0007FE7BDF82E309B0903334FEA114B0AEB2C
:1037C000930A6CE7BDF82C30C3F383134FEA114B17
:1037D0009A4464E703F1020A69E638468AE6BDF8CE
:1037E0002C30C3F383134FEA114B9A4478E6BDF8AB
:1037F0002E309B0903334FEA114B0AEB930A6FE615
:103800000C4940F2A31005F0DFFE9DE6094940F2A5
:10381000A31005F0D9FE76E7494654E7494673E61A
:1038200084020020A09F030088A003000805002058
:10383000244500208CB2020018A1030010B202003F
:103840008268D2F8942A930712D410B50446FFF781
:10385000BBFD30B92046084A0821BDE8104010F0F1
:103860006DBD2046054A0221BDE8104010F066BD3E
:103870000022114612F044BAD8AE0200F0AE0200A7
:103880002DE9F04F8BB0002502AB04AA43F227418B
:1038900041F26E00CDE904550695CDE902550EF0D2
:1038A0007DF9034668B10A2803D003200BB0BDE8B8
:1038B000F08F7F4B5B88012B17D805200BB0BDE83C
:1038C000F08F07A904A8CDE907330DF0E3FC002829
:1038D000ECD17848784A0899121A24F0ABF904A878
:1038E0000DF01AFD0BB0BDE8F08FDFF8E891734BD7
:1038F000734CA3EB0903DB0800932846A3680193EC
:1039000005F036FDD4E90132D4F8008013440133C8
:10391000A3EB0803012B00F2C9806A4D2F1FA5F10C
:1039200008060121284605F021FF384605F042FF30
:10393000304605F03FFFD4E9013E03EA0E00C21C09
:1039400004EB820114F8222012F0040200F09280AD
:1039500003F1020C91F800B00BF0030BBBF1010F67
:10396000E24600F08280BBF1020F00F1030B6CD045
:1039700004EB8B01002AEDD104EB80000133C26817
:10398000079203EA0E0304EB830302F00302012A09
:10399000D9687DD0022A72D04B494FF4BF7005F030
:1039A00013FE4FF0000B304605F010FF594600287B
:1039B00063D02846C4F804A005F0D8FED4E901324B
:1039C0002168134401335B1A012BAAD90A40033240
:1039D00005230231002044F82230216005F0E2FC8A
:1039E0000021384805F094FE80F31005374BBDF8F0
:1039F0000060A3EB0909B6EBD90F51D2019A08F187
:103A00000103134004EB830302EA080808F10308EA
:103A100046EA0545DD6054F828202D4B63F39F22CC
:103A200022F47F7323F0030343F0110344F82820AA
:103A300044F2200224F82830A35C002B3FF43DAF71
:103A4000FEF7D4FA0028FBD137E74B880CEB931331
:103A50000EEA0300C11C03F1020C14F82120E24617
:103A600004EB810102F0040284E70B88C3F38313A3
:103A70006344EDE703F1020A7EE728469CE7BDF8C0
:103A80001E309B0903334FEA114B0AEB930A8AE776
:103A9000BDF81C30C3F383134FEA114B9A4482E7FD
:103AA000094940F2A31005F08FFDA7E741468DE7D5
:103AB00084020020CC0200208803002088A003009C
:103AC00008050020244500208CB2020018A1030044
:103AD000E8B10200A09F03008268D2F8942A9307FD
:103AE00012D410B50446FFF7CBFE30B92046084A81
:103AF0000821BDE8104010F021BC2046054A0221F3
:103B0000BDE8104010F01ABC0022114612F0F8B8BF
:103B10009CAE0200B4AE020030B5C38883B0044648
:103B20000D4613BB217A05291DD0637AA08873B98D
:103B3000124B53F821400021FEF7D4F910490346F7
:103B40002246284603B0BDE8304005F06FBFFEF7BF
:103B5000F5F90C4B0C4953F82020284605F066FF78
:103B6000217AA088E4E703B030BD084A00920849F2
:103B7000084A284605F05AFFD4E700BFBCB502004A
:103B8000B0B5020050B50200D07A0300A8B502001B
:103B900090B5020088B502002DE9F04385B01D46BE
:103BA0000C9C002381460E46174694F80C80237324
:103BB00021462846FFF7B0FF062F09D8DFE807F0B7
:103BC000042E343B444F1F004946204605F02EFF8B
:103BD0002B7A052B05D06B7A5BB92749204605F077
:103BE00025FF204605F00EFF84F80C8005B0BDE8E7
:103BF000F083224A2249204605F018FFEDE7D6E976
:103C00000413F2680393B3680291CDE90032494688
:103C1000D6E90023204605F009FFD9E73268494676
:103C2000204605F003FFD3E74946D6E900232046A6
:103C300005F0FCFECCE7B36800934946D6E90023C3
:103C4000204605F0F3FEC3E7D6E902320192009365
:103C50004946D6E90023204605F0E8FEB8E7D6E954
:103C60000321B3680291CDE900324946D6E9002329
:103C7000204605F0DBFEABE774AE0200A8B50200FB
:103C8000D07A0300082900D970472DE9F04F1D466E
:103C900083B000241B7B2C7307460E461046294632
:103CA00091460193DFF8C8A0DFF8C880FFF734FF22
:103CB00005E03A5D013405F0B9FE082C09D0A642B2
:103CC00041462846F5D85146013405F0AFFE082C90
:103CD000F5D12249DFF8A0A0214CDFF8A0802846CA
:103CE00005F0A4FE4FF0000B0EE012F8081011F0E2
:103CF000970F08BF2E22214628460BF1010B05F035
:103D000095FEBBF1080F10D05E4505D917F80B20C2
:103D10007E2AEAD92E22EEE7514628460BF1010B06
:103D200005F084FEBBF1080FEED199F80830052BA1
:103D300002D099F809305BB90A49284605F076FEA9
:103D4000284605F05FFE019B2B7303B0BDE8F08FA2
:103D5000054A0649284605F069FEEDE780B50200F0
:103D600084B5020074AE0200A8B50200D07A030048
:103D70007CB5020074B50200589A0300259D03002B
:103D8000032810B5044618D80E4B1C5D2F2C234673
:103D90000AD81F2C0DD84FF0A042D2F80405D84005
:103DA000C04300F0010010BD07494FF4F37005F067
:103DB0000BFC04F01F03054AEFE705493A2005F024
:103DC00003FCE1E780B6020044B6020000030050A5
:103DD00008B60200032810B504461AD80F4B1C5D24
:103DE0002F2C224608D81F2C0BD84FF0A0410123BE
:103DF0009340C1F80C3510BD09494FF4F37005F03C
:103E0000E3FB04F01F02074901239340C1F80C357E
:103E100010BD0549412005F0D7FBDFE780B6020061
:103E200044B602000003005008B60200032810B593
:103E300004461AD80F4B1C5D2F2C224608D81F2C85
:103E40000BD84FF0A04101239340C1F8083510BDB5
:103E500009494FF4F37005F0B7FB04F01F0207495E
:103E600001239340C1F8083510BD0549472005F0EE
:103E7000ABFBDFE780B6020044B60200000300504F
:103E800008B6020030B44FF0A043094940254FF472
:103E900080744FF400704FF48052C3F80855C3F893
:103EA0000845C1F80805C3F8082530BC704700BFB5
:103EB0000003005030B44FF0A043094940254FF4AF
:103EC00080744FF400704FF48052C3F80C55C3F85F
:103ED0000C45C1F80C05C3F80C2530BC704700BF79
:103EE00000030050032810B504461DD8114B1C5D7B
:103EF0002F2C20460FD81F2C12D84FF0A041D1F8FC
:103F000004350122824022EA03001340C1F808056B
:103F1000C1F80C3510BD08494FF4F37005F054FB9F
:103F200004F01F000549EAE705495F2005F04CFB56
:103F3000DCE700BF80B6020044B602000003005078
:103F400008B60200263818BF4FF0FF30704700BF98
:103F5000C30706D4830742BF2E4B0C22C3F8182791
:103F6000704770B44FF08043D3F84036DA0722D45C
:103F70004FF0A0432749032240264FF480754FF4A9
:103F80000074C3F81827C3F82027C1F82427C3F802
:103F90003027C3F808654FF48052C3F80855C1F8BC
:103FA00008458107C3F8082503D51A4B0C22C3F82E
:103FB000182770BC70474FF01023D3F8043303F078
:103FC0000703072BD4D1144B0122C3F80425D3F8DF
:103FD0000024002AFBD04FF010210020D1F8042348
:103FE0000D4C22F0070242F00402C1F80423C3F88A
:103FF0000405D4F80034002BFBD0BFF34F8F0749E2
:10400000074BCA6802F4E0621343CB60BFF34F8FE3
:1040100000BFFDE70003005000E0014000ED00E0BC
:104020000400FA052DE9F04F424B93F800E089B007
:10403000BEF1000F6AD000263F4F34460125B2463C
:1040400005E00AF1010A5FFA8AF4A6455ED93B4B06
:1040500039681E687A6816F83400A0F1200BC0F1A8
:10406000200305FA0BFB25FA03F34BEA030305FAD9
:1040700000FC02EA030901EA0C08009358EA090B64
:1040800006EBC4030593DCD0009B21EA0C0122EA75
:104090000303C7E900130AF02DFB294B16F834C0BF
:1040A000C2B2D3E900640023CDE90023009AACF149
:1040B00020018A400392009ACCF1200322FA03F3F4
:1040C000039A1A43CCF1200305FA01F125FA03F310
:1040D0000B4305FA0CF1039201EA06020692009ADC
:1040E000234002FA0CF202920793DDE90634DDE97F
:1040F0000212944208BF8B420BD00E4B0AF1010A08
:1041000093F800E05FFA8AF4A645A0D809B0BDE8AC
:10411000F08F059A5368002BEFD05178A1F101017F
:10412000B1FA81F14909091AB1FA81F149096046E8
:104130009847E2E74465002078650020806500200C
:10414000706500202DE9F8438046214800F048FDC5
:10415000D0B9204D0127D5E90023A8F12004C8F1EA
:10416000200607FA04F427FA06F607FA08F934439A
:1041700002EA090003EA0401014307D022EA090226
:1041800023EA0404C5E90024BDE8F88340460AF0A8
:10419000B1FA114B1E68A8B9586826EA090620EA48
:1041A0000400D5E900211E600C4E586042EA090265
:1041B0000C432A6031686C6005480022BDE8F84372
:1041C00000F0C0BC586849EA06062043E9E700BF92
:1041D0004C6500207865002070650020486500204F
:1041E000042A3BD92DE9F04182B00E46054614461B
:1041F0000AF0D4F868B31E491E4A1F4B0D601F48D1
:104200001F491C60167000230022741EC0E90023A1
:10421000C1E90023E4B21EB305EBC4044FF000086B
:104220000327184E02E0A5421AD01C46A378207836
:104230008DF80530324601A98DF806808DF804709E
:104240000AF0B6F8A4F108030028ECD002B0BDE8EB
:10425000F0810AF055F80028CDD0F7E70720704725
:10426000094A0A48002100F05BFC02B0BDE8F08179
:1042700080650020446500204865002070650020AE
:10428000786500204541000025400000CCB60200C2
:1042900070B50C4E33687BB10B4D2B7853B10024B5
:1042A0003368012113F834000AF088F92B780134BF
:1042B000A342F5D8002070BD0449BA2005F084F966
:1042C000EAE700BF806500204465002084B6020054
:1042D00030B482B001248DF80740144B9DF807508C
:1042E000186044F20104A04259609A6013D044F26D
:1042F0000201884206D1DA60DA6812889A61DA68C7
:104300005268DA6172B69DF80730002BFBD162B6B5
:1043100002B030BC70471A611A6992685A611A6912
:1043200012689A611A695268DA61EBE784650020C5
:1043300000B583B002900091019244F201007146F1
:104340006A4600F003F803B000BD00BF2DE9F0435A
:10435000044685B00E46154672B6FFF71DF8FDF708
:1043600045FE0028FBD1324F44F201039C427A887B
:1043700012D044F202039C4236D1002A46D12D4B82
:104380001B68DB0700D500BE2A463146204605B033
:10439000BDE8F043FFF79CBF002AF0D0D5F80890A5
:1043A000254B264A4846A3EB020806F0B9FE2B68C7
:1043B0002349CDE901364FEAD8084FEA08486B682F
:1043C000009348F0010803464A464046FEF772FC57
:1043D0007B88002BD3D040461A49FEF779FE154B57
:1043E0001B68DB07D0D5CEE7002AC8D0134B124894
:1043F0001549C01AC008000440F001003246FEF71B
:1044000073FD0C4B1B68DB07BED5BCE70A480B4F9E
:104410002B886A680D49C01BC008000440F00100E9
:10442000FEF742F9034B1B68DB07ADD5ABE700BFD6
:1044300084020020F0ED00E088A00300A09F0300AC
:10444000ECB6020014B7020028B70200D0B6020092
:10445000F0B4044612F0030011D14B1CDB00094DEF
:10446000094E0A4F30709BB213442B60084E094D21
:10447000094B30702C8019803A60F0BC70470720DF
:10448000F0BC7047A8650020A4650020AC65002042
:10449000B4650020B0650020B26500202DE9F0472A
:1044A000294F3B888B4202D20920BDE8F0870546A0
:1044B000002016460C4604F05BFF244B244A254896
:1044C000197813780088DBB2834238BF0133C9B250
:1044D00034BFDBB2002399422FD092F800801378CA
:1044E000DFF87890DBB2984286BF0133DBB200235D
:1044F0005FFA88F80020137004F054FFD9F80030F8
:104500000FFA88F24FEAC20A43F83260534405B109
:104510001CB900209880BDE8F0870F4B38881B68D5
:10452000294608FB0030224623F084FBD9F80030EE
:104530009A440020AAF80440B7E7002004F032FFB4
:104540000420BDE8F08700BFB0650020B4650020FE
:10455000A4650020B2650020A8650020AC6500209D
:104560002DE9F84F1B4C1C4D22782B789A4226D00F
:10457000DFF86CA0DFF86C90184FDFF86CB04FF0EC
:1045800000082378DAF800203888D9F80060DBB218
:104590000FFA83FE02EBCE0103FB0060898852F81C
:1045A0003E3098472378BBF80010DBB25A1C994282
:1045B000D2B206D9227023782A789A42E1D1BDE896
:1045C000F88F84F8008022782B789A42D9D1BDE800
:1045D000F88F00BFB4650020A4650020B0650020FE
:1045E000AC650020A8650020B2650020F8B5204920
:1045F000204B0024C1F84041C1F84441C1F8484172
:10460000C1F84C41C1F80041C1F804411B6833B303
:104610001948D1F8045501681A686D1A25F07F45CC
:10462000AA4227460DD8197CDE69AD1A144419B187
:104630001F74D3E9052090471EB133461A68AA4279
:10464000F1D90E490E4A0B7812789A4208D00D49DA
:104650000D4A41F823404FF40013C2F80031F8BD71
:10466000531CDBB2022B08BF00230B70EFE700BF27
:104670000010014068670020646700206167002027
:10468000606700205867002000E100E02DE9F04F4E
:10469000B34AB44913780978B34E994285B0356866
:1046A00000F08D810133DBB2022B08BF0023AF493C
:1046B0001370AF4AD1F800C052F823200CEB02036C
:1046C00023F07F430B60002D00F0C6812B689A42D7
:1046D000C0F0C48100273846BE4603E00B68934211
:1046E00000F27081EC68C5F800E0D21A1844E9695C
:1046F0003CB10CEB000323F07F43C5E90134EF61CB
:104700002F460D460029E9D1316000254FF0010AFE
:10471000984B9949DFF8749243F0010301934FF0ED
:104720000008002F33D0D7E901BE3C46FF698F4B0C
:1047300092481A68ABEB020323F07F43834200F2F6
:1047400004817344236000203268E061C4E9010001
:1047500001202074002A00F0F6801068984208D3E7
:10476000E2E0DEF800C0DC4580F0E38072465B46A4
:104770006046D2F81CE0A3EB000BBEF1000FF0D1B5
:10478000C4F800B0C4F81CE0D461002FCBD191F87C
:1047900001E00878864519D084460CEB4C0C8B78E8
:1047A00001EBCC0C421CD0B283429CF80430087060
:1047B00004BF00200870022BDCF8084000F0838062
:1047C000032B75D0012B5AD07045E5D13668B8F16E
:1047D000000F01D1AE422CD086B3644A684B1468F6
:1047E000D3F80475DFF8A081366898F800203D1BE7
:1047F00025F07F450335002A00F0EB80AE422CBF48
:10480000A41964195E4A24F07F44C2F84045D2F8E6
:104810000435DB1BE41B23F07F4324F07F44033388
:10482000A34200F2EF80002389F8003005B0BDE814
:10483000F08FBAF1000FF6D0002ECED1504D514A74
:104840004C4C4FF400314FF480330127C2F88010F4
:104850003C43C5F848334FF43C60C5F808336F60FB
:10486000A047424BAF604FF43C601E60A047464BF0
:104870001E70002389F8003005B0BDE8F08F237C5E
:10488000002BA1D1DCF80CB0C4F804B0DCF810E0C7
:10489000C4F808E0DCF81420E26099F80020DCF8A5
:1048A0001800A061002A3FF442AF63609B463EE7D8
:1048B0003368002B3FF46EAF00221A74DB69002BC3
:1048C000FBD1336063E7336853B19C4260D09B46B1
:1048D00002E0944207D09346DBF81C20002AF8D16E
:1048E0000023237470E7A34554D0E069D4F800E0B6
:1048F000CBF81C0000285CD09C4602687244026021
:10490000634518BF4FF001080023087891F801E0D3
:10491000237459E7326800230120C4E90033A360FF
:10492000E36120747AB110683460C31A1360E261E5
:10493000F7E66044C31ACEF80030C4F800B0C4F8FB
:104940001CE0D46121E73460EBE6A2EB0B0222F01D
:104950007F427245DED2AEEB02032360F3E600BF76
:10496000606700206167002068670020646700209E
:104970005867002040B70200B8650020FEFF7F00A6
:104980000010014000E100E055670020546700205E
:10499000A3462246D3F81CC0C6F800C0BCF1000FE5
:1049A00045D0D069D2F800E0CBF81C000028A4D193
:1049B000A6E70023087891F801E0237404E70027B4
:1049C000BA46A5E631600D469B1A0B604FF0010A0E
:1049D0009EE62449244A4FF48030C3F844034FF044
:1049E000010AC3F804034FF40030C1F8800142F01B
:1049F00001020860C3F800A04FF43C60904788F8BB
:104A000000A0FBE6184BD2F80415C2F8401543F09D
:104A100001034FF43C609847124B4FF40032C3F847
:104A20000021002389F8003005B0BDE8F08FCDE902
:104A300002320E4BDFF83CE001209860019B89F8C0
:104A40000000CEF800C04FF43C609847D6F800C094
:104A50000749DDE90232A4E72F4656E6294600273A
:104A6000B2E700BF00E100E040B7020000100140E3
:104A7000B8650020646700202DE9F8431F4D204EE3
:104A8000204FDFF898804FF480334FF400324FF01E
:104A900001090024C6F8802047EA0907C5F8483311
:104AA0004FF43C60C5F80833C5F80490B847C5F822
:104AB00008904FF43C60C8F80040B847124A134BC6
:104AC00013491C601470134B134A0C70112114709D
:104AD0001C8099704FF40012C023C6F8802186F81C
:104AE00015333260C5F8084586F81133D5F804351A
:104AF000C8F800302046BDE8F88300BF0010014030
:104B000000E100E040B70200556700206867002020
:104B100060670020B865002061670020646700209E
:104B2000074B9B783BB142B138B10368187C10B990
:104B300059745A617047082070470720704700BFBA
:104B4000B86500202DE9F843224CA378002B35D01E
:104B5000002833D0042934D943697BB3437C06460B
:104B6000012B4FF000000CBF88468046174689464F
:104B700004F0FEFB6378A17822785D1CEDB2A942B7
:104B800008BF0025AA421FD003EB430304EBC30375
:104B90000121114A9E601971D2F80425DA600020C3
:104BA000C3E904989F61657004F0FCFB0B4B4FF464
:104BB0000012C3F800210020BDE8F8830820BDE8FA
:104BC000F8830720BDE8F883002004F0EBFB042005
:104BD000F2E700BFB86500200010014000E100E0EE
:104BE00070B5174DAB7823B318B343690BB30024EA
:104BF00004740646204604F0BBFB6B78A87829783D
:104C00005A1CD2B2904208BF2246914213D003EB05
:104C1000430305EBC30302219E60204619716A70AD
:104C200004F0C0FB074B4FF40012C3F800212046EC
:104C300070BD082070BD204604F0B4FB042070BD98
:104C4000B865002000E100E00378052B02D0094B95
:104C50001B681847084BD3F88424D3F8803413F02A
:104C6000FF0FF4D1054BD2B2052A08BF1846014BFD
:104C70001B6818476C6700200070024094B7020060
:104C800018B9084B08481B68184710B540F27B203C
:104C9000064904F099FC034B03481B68BDE810402B
:104CA000184700BF6C67002098B7020050B7020099
:104CB0002DE9F04F87B000250446894692469B4671
:104CC0000295A84601E008F10108626801235568D1
:104CD0002146002202A8A8470028F4D18DF806003A
:104CE0000490B8F1000F2AD0054606460AE09DF868
:104CF00006306768023B7F68B8479DF806301E445F
:104D0000B0451CD962680123576821460DF106029F
:104D100004A8B84762680123576821460DF10702CD
:104D200004A8B8479DF807304B454FF000022146D4
:104D300004A8DCD1AA4506D00135EDB2D7E705209D
:104D400007B0BDE8F08F109A9DF8063013608BF81D
:104D500000308BF801906168023B4D680BF1020254
:104D60002146A847002007B0BDE8F08F2DE9F04F9D
:104D700083B0054606F03AFA002800F084805348D4
:104D800007F05EFD044618B1204603B0BDE8F08F81
:104D90004F4A5049504B14700C60482221464F48EE
:104DA0001C6023F049F8214648224D4823F044F87E
:104DB000002D77D095E807004A4B83E807000028CC
:104DC00067D0002006F0FCFA08B1852864D1464C73
:104DD000DFF80C9114F8013C444F404EA4F109084F
:104DE000032515FB0345A54226D02CB3627802B3F8
:104DF000A378E31818BF4FF0010A1AD01B7803F00C
:104E00000F0B1B062BD4BBF1080F2ED809EBCB0BD5
:104E1000D8F80430CBF800801B68CBF804309245FA
:104E20000AF1010105D2A3785344E3185FFA81FA2D
:104E3000E4D10334A542D8D1D8F804400B238DF82F
:104E40000430002C3BD02368002B31D0284801A926
:104E500098470446002897D007F01CFB94E7BBF165
:104E6000080F09D806EBCB0BD2E739464FF4CF70C9
:104E700004F0AAFB6278C9E739464FF4CC7004F01D
:104E8000A3FB6278EEE7194940F2313004F09CFB55
:104E900075E7184A1A6094E7144A40F25F31FFF749
:104EA00047FA94E70F4B134A5D601D721A6088E75A
:104EB0000E4940F2111004F087FB2368C6E70B4946
:104EC0004FF4887004F080FBBDE700BF494C000040
:104ED00015680020086800200C6800207867002012
:104EE000C06700206C6700208DB8020050B7020038
:104EF00084B80200B557000007F0E2BA08B507F021
:104F0000FFFB18B9BDE8084008F0A4BE044940F210
:104F1000D13004F059FBBDE8084008F09BBE00BF4B
:104F200050B7020010B507F0E1FB88B14FF08043A5
:104F300003E0D3F83824D10709D5D3F838249207F1
:104F4000F7D5064B06481B68BDE81040184710BD52
:104F500004494FF4767004F037FBE7E76C670020F4
:104F60009CB7020050B7020000B5054B83B0822207
:104F70001B688DF8042001A8984703B05DF804FB76
:104F80006C67002000B5054B83B083221B688DF849
:104F9000042001A8984703B05DF804FB6C6700206B
:104FA00010B50C4B1B7882B073B1012002F07CFF6E
:104FB000044630B1084B84221B688DF8042001A8F8
:104FC0009847204602B010BD044940F2134004F057
:104FD000FBFAEAE7146800206C67002050B7020073
:104FE0002DE9F04F054685B0002800F0DE806B68A3
:104FF000002B00F0E3801B68002B00F0D0802B68B2
:105000001B6823B1794940F26D5004F0DDFA07F0D6
:105010006DFB68BB07F062FB50B32A7A002A2FD0E1
:1050200005F10903DFF8D0A1DFF8C081704F0193CB
:105030001C464FF000094FF0000B63785FFA8BF2CB
:10504000934276D9A3781344DC4272D0E25C02F03A
:105050000F06120668D4082E7ED80AEBC6031B681A
:105060000BF1010B002BE8D0112005B0BDE8F08F4B
:105070005E4940F2715004F0A7FA2A7A002ACFD193
:105080004FF000095FFA89F405F10903A242019388
:10509000DFF864A1DFF85481554F2BD9019B04EB55
:1050A00044041C1926D06378F3B1A378E31818BF21
:1050B0004FF0010B18D01A78130602F00F0646D4F1
:1050C000082E4FD80AEBC6031D606A6812685A6042
:1050D00063785B450BF1010205D9A3785B44E318C3
:1050E0005FFA82FBE7D12A7A09F101095FFA89F4B4
:1050F000A242D3D83F4C236833B13C4E9D4243D0AB
:105100001C682368002BF9D125606B680B228DF891
:105110000C20002B59D01B68002B5FD0284603A918
:10512000984705B0BDE8F08F082E21D807EBC603DD
:1051300095E709F101092A7A5FFA89F991459FD229
:10514000019B09EB49041C197FF475AF98E7082E01
:1051500014D807EBC603B7E741464FF4CF7004F00D
:1051600033FA7AE741464FF4CF7004F02DFAA9E7FD
:1051700041464FF4CC7004F027FAD7E741464FF48C
:10518000CC7004F021FAE4E7314640F2975004F085
:105190001BFA23681C682368002BAFD1B4E71349BE
:1051A00040F26C5004F010FA29E7104940F26A50BE
:1051B00004F00AFA6B68002B7FF41DAF0B4940F234
:1051C0006B5004F001FA6B6815E708494FF48870DA
:1051D00004F0FAF96B681B68002B9FD1034940F279
:1051E000111004F0F1F96B681B6897E750B70200E3
:1051F0007867002008680020C067002070B5054669
:1052000000284CD06B68002B51D01B68002B57D066
:1052100007F06CFA18BB07F061FA00B32B4C226858
:105220003AB12B4EAA422ED0146862680434002A88
:10523000F8D12B685B6823B1254940F20E6004F079
:10524000C3F9244C22683AB1214E95420DD014681E
:1052500062680434002AF8D12560002070BD1C4922
:1052600040F2036004F0B0F9D8E7314640F2146030
:1052700004F0AAF923681C6862680434002AE4D1A7
:105280002560002070BD314640F2096004F09CF9B1
:1052900023681C6862680434002AC3D1C9E70C493A
:1052A00040F2FF5004F090F96B68002BADD1084933
:1052B0004FF4C06004F088F96B681B68002BA7D11D
:1052C000034940F2016004F07FF9A1E71068002073
:1052D00050B702000C68002010B5044608B307F070
:1052E00005FA80B907F0FAF968B1114A136843B1B9
:1052F0009C4202D10EE0A3420BD01A685368002BE7
:10530000F9D1052010BD0B4940F2216004F05CF991
:10531000EBE7043223685B68136023680020586061
:1053200010BD044940F21F6004F04EF9D7E700BFFA
:105330000C68002050B7020008B570B10A4A137813
:105340000133DBB213700BB1002008BD074940F2F6
:10535000716004F039F9002008BD044940F26E6024
:1053600004F032F9EAE700BF1468002050B70200E9
:1053700010B580B10B4C23781BB1013B237000208A
:1053800010BD094940F27B6004F01EF92378013B0F
:105390002370002010BD044940F2796004F014F934
:1053A000E8E700BF1468002050B70200024B1878ED
:1053B000003018BF0120704714680020030710B5A3
:1053C000044604D52046BDE8104007F0C9BF07F0E9
:1053D00085FC204608F05EF82046BDE8104007F046
:1053E000BFBF00BF08F0A6B9014B1868704700BFE7
:1053F0000868002070B4114B1E68A6B1357A75B1EB
:10540000737A834212D03246002302E0547A8442F7
:105410000DD00133DBB29D4202F10302F6D13368B5
:105420001E68002EEAD1304670BC70470023002968
:10543000F9D030460B7070BC704700BF0868002080
:1054400070B51546044640B1636873B11B68ABB1D3
:1054500029462046BDE8704018470E4940F20F101B
:1054600004F0B2F86368002BF0D10A494FF4887059
:1054700004F0AAF863681B68002BE9D1054940F2E3
:10548000111004F0A1F86368294620461B68BDE8A6
:105490007040184750B7020000F00F03082B01D9E5
:1054A00010207047020670B54CBF104A104ADB004E
:1054B00013441D684DB16B680C4643B11B686BB15A
:1054C00021462846BDE870401847102070BD0949A4
:1054D0004FF4887004F078F86B68EFE7054940F204
:1054E000111004F071F86B681B68E9E77867002019
:1054F000C067002050B7020070B5154B1C682CB374
:105500000546144E09E01B689BB129462046984782
:1055100006281AD123681C68C4B16368002BF2D135
:1055200031464FF4887004F04FF863681B68002B15
:10553000EBD1314640F2111004F046F86368294679
:105540001B68204698470628E4D070BD062070BD31
:105550000868002050B7020038B50D46044607F031
:10556000FFF918B1054B1B78022B01D0082038BD7C
:1055700029462046BDE8384007F014BA15680020D7
:1055800038B50D46044607F0EBF918B1054B1B780A
:10559000022B01D0082038BD29462046BDE83840FE
:1055A00007F0C8BA15680020F8B543689B6806463E
:1055B0000C4615461BB19847062800D0F8BD337A33
:1055C000A34223D345BB337AA3422AD9093604EB3D
:1055D000440434446778BFB1013FFFB204E00135B1
:1055E0006278EBB29A4219D9A3786219D65C330774
:1055F00005D4304607F072FB304607F04BFF3046CB
:1056000007F0AEFEAF42EAD10020F8BD064940F2F5
:10561000F92003F0D9FFD5E70720F8BD00231B7858
:10562000FFDE6B78FFDE00BF50B7020043681B69E6
:1056300003B11847184670472DE9F84F314BD3F89E
:105640000080B8F1000F5AD0DFF8BCA098F808909D
:10565000B9F1000F4CD000273C4608F109050BE0DA
:1056600020B1514640F26A7003F0AEFF0137FCB240
:10567000A14505F103053BD9D8F804309B682BB14F
:1056800000222146404698470628E9D198F808307C
:10569000A34221D39C4228D26B78002BE6D003F1A1
:1056A000FF3B5FFA8BFB0024AB782A19D65C3307EB
:1056B00005D4304607F012FB304607F0EBFE3046CB
:1056C00007F04EFE5C45D1D001346A78E3B29A42CD
:1056D000EAD800231B78FFDE514640F2F92003F0A0
:1056E00073FF98F808309C42D6D300235B78FFDE26
:1056F000D8F80030D3F80080B8F1000FA6D1BDE88B
:10570000F88F00BF0868002050B702002DE9F0476D
:10571000264BD3F800A0BAF1000F36D0DFF89090F6
:105720009AF80880B8F1000F28D000273C460AF10B
:105730000905DAF80430DB6813B121465046984772
:105740009AF80830A34222D39C4229D26B787BB1CD
:10575000013BDEB2002404E001346A78E3B29A42ED
:1057600021D9AB782A19D05C07F0E4FFB442F3D119
:105770000137FCB2A04505F10305DAD8DAF80030AC
:10578000D3F800A0BAF1000FCAD1BDE8F0874946AE
:105790004FF4467003F018FF9AF808309C42D5D3B6
:1057A00000235B78FFDE00231B78FFDE0868002003
:1057B00050B702002DE9F041844D2B680446002BC0
:1057C00000F0048303F008FE052840F28C80237863
:1057D000852B00F2F482DFE813F04702E0018C0031
:1057E0006A029F02B700BE00F202DF0005011E013F
:1057F000F202F202F202F2024501F202F202F202B7
:10580000F202F202F202F202F202F202F202F202F8
:10581000F202F202F202F202F202F202F202F202E8
:10582000F202F202F202F202F202F202F202F202D8
:10583000F202F202F202F202F202F202F202F202C8
:10584000F202F202F202F202F202F202F202F202B8
:10585000F202F202F202F202F202F202F202F202A8
:10586000F202F202F202F202F202F202F202F20298
:10587000F202F202F202F202F202F202F202F20288
:10588000F202F202F202F202F202F202F202F20278
:10589000F202F202F202F202F202F202F202F20268
:1058A000F202F202F202F202F202F202F202F20258
:1058B000F202F202F202F202F202F202F202F20248
:1058C000F202F202F202F202F202F202F202F20238
:1058D000F202F202F202F202F20237015E019C01D0
:1058E000D4021702B7003A4940F22C4003F06CFE94
:1058F0006DE7384E3278931EDBB2062B0BD8364953
:10590000CB5C13B105F02EFD3278022A01D0082AB3
:1059100001D106F039FF314B5B68032232700BB1C5
:10592000022098472D687DB1294E6B68002B00F04E
:10593000C9821B6828462146002B00F0B382984795
:105940002B681D68002DF0D1254B2146D3E90002BC
:10595000BDE8F0411047A378190603F00F0500F1E8
:105960004082082D00F287831D4B03EBC5052B6891
:10597000002B00F086836B68002B00F0888328687A
:1059800021469847F8B1A07802071CD003071AD423
:10599000BDE8F04107F054B9104B5B680BB108202B
:1059A00098472D687DB10A4E6B68002B00F05C8231
:1059B0001B6828462146002B00F0468298472B683A
:1059C0001D68002DF0D1BDE8F08100BF08680020FF
:1059D00050B702001568002048B702006C6700202D
:1059E000C0670020974B5B680BB1092098472D6872
:1059F000002DE8D0944E6B68002B00F0A5821B6848
:105A000028462146002B00F08F8298472B681D689E
:105A1000002DF0D1D7E78B4B5B680BB10A2098477C
:105A20002D68002DCFD0884E6B68002B00F0A3822C
:105A30001B6828462146002B00F08D8298472B6872
:105A40001D68002DF0D1BEE7804E3378062B00F0A4
:105A5000D981072B01D0052BB5D106F09FFE02237B
:105A60003370B0E7774B5B680BB10F2098472D6818
:105A7000002DA8D0744E6B68002B00F03A821B6892
:105A800028462146002B00F0248298472B681D6889
:105A9000002DF0D197E76E4B6E49D3E90002904795
:105AA0002C6884B1684E6B4D6368002B00F0D68281
:105AB0001B6820462946002B00F0C08298472368C7
:105AC0001C68002CF0D15F4C63680BB10D20984727
:105AD000FFF71CFE01F0ECFD5F4B1B68002B00F094
:105AE0008F810120594E06F0B9FD3278931EDBB24A
:105AF000062B0BD85949CB5C13B105F033FC327837
:105B0000022A01D0082A01D106F03EFE012333709B
:105B100059E74E4EFFF7FAFD07F068FF3278931E03
:105B2000DBB2062B0BD84D49CB5C13B105F01AFC48
:105B30003278022A01D0082A01D106F025FE2C680D
:105B40000023337084B1404F454D6368002B00F053
:105B500040821B6820462946002B00F02A82984785
:105B600023681C68002CF0D1394B3D49D3E9000271
:105B70009047344B5B680BB10E2098473378023B5B
:105B8000DBB2062B3FF61FAF344AD35C002B3FF449
:105B90001AAFBDE8F04105F0E5BB2C4EFFF7B6FDAE
:105BA00001F07CFD3278931EDBB2062B00F21481EB
:105BB0002A49CB5C002B00F00F81022A03D0082A6F
:105BC00001D006F0EBFD1F4B5B68022232700BB177
:105BD000012098471E4B2146D3E9000290472D68CB
:105BE000002D3FF4F0AE184E6B68002B00F0DA8108
:105BF0001B6828462146002B00F0C48198472B687B
:105C00001D68002DF0D1DEE6104E3378032B00F036
:105C1000028106F083FD00283FF4D5AE3278931E52
:105C2000DBB2062B40F240820E4805F05BFB327877
:105C3000022A01D0082A01D106F0A6FD06233370FE
:105C4000C1E600BF6C67002050B702001568002055
:105C5000C0670020A0B702000C68002048B702000F
:105C6000A4B7020024000020A54B1B78032B00F0F2
:105C7000CE80082B00F0CB80A24B5B680BB10020DC
:105C80009847A14B1D68002D3FF49DAE9F4E6B6859
:105C9000002B00F000811B6828462146002B00F0F5
:105CA000EA8098472B685D68002DF0D18BE6944E12
:105CB0003378082B00F09C809A1ED2B2062A40F25C
:105CC000D481934805F00EFB3378022B01D0082BCA
:105CD00001D106F059FD052333708A4B5B680BB187
:105CE000032098478B4B2146D3E9000290472D684B
:105CF000002D3FF468AE854E6B68002B00F0978155
:105D00001B6828462146002B00F0818198472B68AC
:105D10001D68002DF0D156E67A4B5B680BB103206D
:105D200098477C4B7C49D3E9000290472C6884B1AA
:105D3000764E794D6368002B00F062811B68204627
:105D40002946002B00F04C81984723681C68002CE2
:105D5000F0D16B4E3378062B4FD0082B0ED09A1E05
:105D6000D2B2062A40F29A81694805F0BBFA33782C
:105D7000022B03D0082B01D006F010FD0223337054
:105D800021E65F4E3378032B7FF41DAE08F0B6F8A2
:105D900000283FF418AE3278931EDBB2062B0BD8E6
:105DA0005E49CB5C13B105F0DDFA3278022A01D0EE
:105DB000082A01D106F0E8FC0423337003E65349B6
:105DC00040F22650BDE8F04103F0FEBB4F4940F2DF
:105DD000254003F0F9FBF5E44D4805F083FA3278ED
:105DE000EBE6082D00F266814D4B03EBC505BEE5E1
:105DF0000223337006F0DCFC6FE707233370E2E523
:105E0000207A6FE606F0CAFC08233370DBE54548CC
:105E1000FFF7D0FC30E708F071F800283FF4F9AE46
:105E20003278931EDBB2062B0BD83C49CB5C13B106
:105E300005F098FA3278022A01D0082A01D106F03A
:105E4000A3FC04233370E4E6314640F2111003F062
:105E5000BBFB6B6828461B68214698472B681D686A
:105E6000002D7FF4A1ADAEE531464FF4887003F00C
:105E7000ABFB6B689CE5314640F2111003F0A4FBCC
:105E80006B6828461B68214698472B685D68002D83
:105E90007FF4FDAE97E531464FF4887003F094FB34
:105EA0006B68F8E6314640F2111003F08DFB6B6829
:105EB00028461B68214698472B681D68002D7FF4F3
:105EC00034AD41E531464FF4887003F07DFB6B68DB
:105ED0002FE5314640F2111003F076FB6B6828463F
:105EE0001B68214698472B681D68002D7FF4C3ADC1
:105EF00069E531464FF4887003F066FB6B68BEE5D8
:105F0000156800206C6700200C68002050B7020064
:105F100024000020C0670020ACB7020048B7020090
:105F200078670020A8B70200314640F2111003F054
:105F30004BFB6B6828461B68214698472B681D68F9
:105F4000002D7FF458AD3EE531464FF4887003F0E4
:105F50003BFB6B6853E5314640F2111003F034FB14
:105F60006B6828461B68214698472B681D68002DE2
:105F70007FF45AAD27E531464FF4887003F024FBD7
:105F80006B6855E5314640F2111003F01DFB6B685C
:105F900028461B68214698472B681D68002D7FF412
:105FA00023AE10E531464FF4887003F00DFB6B68AB
:105FB0001EE6394640F2111003F006FB63682046E6
:105FC0001B682946984723681C68002C7FF4BDADE8
:105FD000CAE539464FF4887003F0F6FA6368B8E50D
:105FE000314640F2111003F0EFFA636820461B6857
:105FF0002946984723681C68002C7FF49BAEA8E6CE
:1060000031464FF4887003F0DFFA636896E6314654
:1060100040F2111003F0D8FA6B6828461B6821463D
:1060200098472B681D68002D7FF466AECBE431469F
:106030004FF4887003F0C8FA6B6861E6314640F2AD
:10604000111003F0C1FA636820461B68294698477F
:1060500023681C68002C7FF427AD34E531464FF4EB
:10606000887003F0B1FA636822E515498A5C002A5A
:106070007FF42BAE25E613494FF4CF7003F0A4FA5A
:1060800072E4104940F2025003F09EFA73E40D49A5
:1060900040F2035003F098FA6B6870E408498A5C98
:1060A000002A7FF465AE5FE60549CB5C002B7FF4E8
:1060B000BFADB9E503494FF4CC7003F085FA93E620
:1060C00048B7020050B702004360CA699A4205D33C
:1060D0008A6902600B67CB610020704701F12802DA
:1060E00002608B67002070472DE9F047DFF81093BE
:1060F0008846097A89F8001082B015461F46044682
:10610000002800F0B3832168B1F5517F00F02785A6
:1061100040F2788140F25633994200F0588440F2C0
:10612000498140F27233994200F0AE8340F2F98027
:1061300040F28333994200F09F83B1F5617F12D31F
:1061400040F28933994200F03E8340F28E33994207
:1061500000F03983B1F5617F00F0178500202060E1
:1061600002B0BDE8F08740F27733994202D0B1F532
:106170005F7FF3D14FF0010A00230DB12279EA5479
:1061800040235745237140F239840AF10106002D5E
:1061900000F04784237905F80A30B7424FF0000336
:1061A000237140F2A783AA1901361370904B98F817
:1061B00014201B681B789A4200F0268498F8162059
:1061C0009A4240F035840023B742237140F2298679
:1061D000334601360DB12279EA548649864A0B7856
:1061E00012780133DBB20B709A4200F25983834A72
:1061F00013780133DBB2137099F800209A4240F211
:106200005F830923B742237140F2F085731C002D90
:1062100000F0B6852279AA559F424FF00402227100
:1062200040F28885E91801330A70744A98F808101A
:106230001278914240F23B8602EB420208F10901DA
:106240006B488E5C26710A449F42026040F236859C
:106250005A1C002D00F038852179E95497424FF0FF
:106260000003237140F2188561481946036802F162
:10627000010AA95457455A78227140F2F48405EB7B
:106280000A010AF1010A0A701B7898F814209A4250
:1062900000F0D58498F816209A4240F0F0840A2342
:1062A0005745237140F2CF850AF10103002D00F01C
:1062B0003085227905F80A209F424FF000022271B2
:1062C00040F26585114603F1010A00225745E95461
:1062D000227140F2268505EB0A030AF1010A1A70C1
:1062E00000235745237140F27C830AF1010615B162
:1062F000237905F80A30DFF8F8A098F81410DAF8D6
:1063000000301A78914200F0728398F8161091428A
:1063100040F0CE82384837495A78027000230B701B
:1063200062E740F25933994200F0EB8340F2AA81D0
:1063300040F26D33994200F0498240F26E33994247
:106340007FF40CAF002D00F03E8322792946012610
:106350000A70274A2749136891F800A0002B00F023
:1063600028855978514540F29F859A449B78B742D9
:106370001AF80330237140F2688306F1010A0DB167
:106380002379AB55136898F814201B789A4200F0D3
:10639000A18298F816209A4240F04484022357457F
:1063A000237140F2448553460AF1010A002D7FF41F
:1063B000E5AEE5E6B1F5537F00F0AA8340F29381A4
:1063C00040F25133994200F04D8340F2718140F226
:1063D0005233994200F00A8240F2553399427FF4D9
:1063E000BDAE002D00F0D482217928460122A5E01F
:1063F0001C6800201968002016680020176800201B
:106400001868002040F22633994200F0E78240F2FB
:10641000E48040F23333994200F03E82B1F54D7F83
:10642000C0F0C380B1F54F7F00F02A8240F2AC800B
:1064300040F24233994200F0298300F2208340F277
:10644000413399427FF48AAE01230026002D00F0EB
:106450007B842279AA559F424FF02402227140F298
:106460004D841146581C00228742E954227140F2A3
:106470001F84411C10238F422A54237140F206844A
:106480001A46481C012387426A54237140F2E5836F
:106490001A46C11805238F422A54237140F2C9833A
:1064A0001A46481C242387426A54237140F2AE8363
:1064B0001A46411C01238F422A54237140F29A83C9
:1064C0001A46C818032387426A54237140F28C830A
:1064D000411C2B548F4298F81600207140F27E83A5
:1064E0004B1C04229F426854227140F27183E818C9
:1064F0001146013324229F420170227140F26283CF
:1065000011465A1CE95497424FF00203237140F29E
:106510000782A8181946013202239742017023719D
:1065200040F2E9821946531CA9549F424FF00502DC
:10653000227140F2F0811146E8185A1C2423974238
:106540000170237140F2A9821946531CA9549F423D
:106550004FF00602227140F2B582E91801330A7049
:1065600098F8142022719F4240F283825E1CEA5404
:10657000B74298F81630237140F2C881AA19013643
:106580001370D94B1B68C5E6B1F54D7F00F09282C0
:1065900040F2353399427FF4E1AD002D00F0C58122
:1065A00022792B464FF0010A99E6B1F54B7F00F0B6
:1065B0003F812ED940F22D33994200F0948240F26F
:1065C0002E3399427FF4CAAD002D00F0AE812A46E9
:1065D000237913704FF0010A82E640F21633994294
:1065E00000F0B68238D940F21933994200F0DC82CB
:1065F00022D9B1F5487F00F0188140F22133994249
:106600007FF4ACAD002D00F0D98122792946012319
:106610000AE640F22733994200F05A82B1F54A7FE8
:106620007FF49CADB04B1B68002D00F0C98122792E
:1066300029464FF0010A26E640F21733994200F04E
:106640006E82B1F5467F7FF489AD002D00F0BD81EB
:1066500021790126002299E040F21333994200F09B
:106660008C82B1F5457F55D300F0978240F2153307
:1066700099427FF473AD002D00F06F8122790120E3
:1066800000216CE040F25733994200F05A82B1F594
:10669000567F7FF463AD01260023002D40F0348344
:1066A00098F816302371B74240F23081013668E71E
:1066B00040F24F33994200F05982B1F5547F7FF494
:1066C0004DAD01220023002D40F02083022397428C
:1066D000237140F22581013202239742237140F257
:1066E0000A82531C87E040F24933994200F0B3819B
:1066F00059D940F24A33994200F05D8240F24B335F
:1067000099427FF42BAD002D00F0128123790121F5
:106710000020DEE6002900F0098240F2123399429F
:106720007FF41CAD002D00F04F8323792B70012FD7
:106730004FF00B03237140F26E83032102220120EC
:106740002B54974298F81400207140F2CB82022318
:106750008F42A854237140F2A5821A46481C022396
:1067600087426A54237140F284821A46411C0223F4
:106770008F422A54237140F26A824A1C6B5497421A
:1067800098F81910217140F24782561C0023B74235
:10679000A954237140F23482AA1901361370534A66
:1067A0000023137028E540F24533994200F07B81C5
:1067B000B1F5527F7FF4D2AC002D00F0EB8022794E
:1067C000012000216EE60126002303E501230026B7
:1067D000002D00F094802279AA559F424FF00502C7
:1067E000227140F22C81E9185E1CB1E501230022E0
:1067F000002D40F09C8205229F42227140F28B8046
:106800005A1C24239742237140F24781531C0622CD
:106810009F42227140F25681013398F81420227170
:106820009F4240F226815E1C3AE701230026EEE4F7
:1068300001234FF0000A002D00F0DE82227905F8D6
:106840000A209F424FF00202227140F2A68203F119
:10685000010AEA54574598F81930237140F24882EA
:1068600005EB0A020AF1010A137039E5204940F2EA
:106870000F3002F0A9FE46E401264FF0000A86E43C
:1068800001264FF0000A32E5174A4FF0010A0026B0
:10689000002D7FF475AD75E501234FF0000A05E585
:1068A0000723B742237110D9731C002D93D126E022
:1068B0000F4940F2623002F087FEDAF8003029E535
:1068C00040F29933236001204AE440F26D332360A3
:1068D000012045E40323574523713FF664AD40F2A0
:1068E0007733236001203BE41C68002017680020F8
:1068F000D0B702004FF461732360012030E4052219
:106900009F42227140F29B805E1C22E540F2593387
:106910002360012024E440F25533236001201FE46A
:1069200040F25133236001201AE44FF0010AD7E40A
:10693000012398F8162022719F4240F24F810133C3
:1069400004229F42227140F24381013324229F425C
:10695000227140F237815A1CB8E601260223B74261
:10696000237140F2868101360223B742237140F23F
:106970006E81013698F819302371B74240F24C818C
:1069800001360023B742237140F23A81013606E70F
:10699000012236E7012324229F42227140F23681F0
:1069A000013301229F42227140F2248113440322C9
:1069B0009F42227140F218810133BAE7012334E487
:1069C0004FF0010A60E40126C3E40126D9E7012360
:1069D0000022002D3FF41BAF2179B7E501220023EF
:1069E00037E44FF44F7323600120FFF7B9BB052351
:1069F000B742237140F2D781731C27E540F28333FD
:106A000023600120FFF7ACBBD8F82030B7421B78D9
:106A100023713FF6DDAB40F2893323600120FFF79D
:106A20009FBBB74225717FF665AF0136FFF7BEBB4E
:106A3000C34940F2923002F0C7FDFFF7CEBB40F2EF
:106A40006E3323600120FFF78BBB40F2723323606B
:106A50000120FFF785BB002D00F003822279012180
:106A6000002027E5002D00F0F4812179284601223D
:106A700052E54FF4567323600120FFF771BB002DE0
:106A800000F0F881227901210020F3E4002D00F0CC
:106A9000E481217901200023E5E440F256332360AC
:106AA0000120FFF75DBB002D00F0DD81227901217F
:106AB0000020EFE4002D00F0CE8121794FF0010A93
:106AC000002302E440F2573323600120FFF748BB64
:106AD0009C4B1B68002D00F0DA8121794FF0010AF0
